:100000000C9434000C9449000C9449000C94490061
:100010000C9449000C9449000C9449000C9449003C
:100020000C9449000C9449000C9449000C9449002C
:100030000C9449000C9449000C9449000C9449001C
:100040000C9449000C9449000C9449000C9449000C
:100050000C9449000C9449000C9449000C944900FC
:100060000C9449000C94490011241FBECFEFD8E036
:10007000DEBFCDBF11E0A0E0B1E0ECE1F1E002C0F5
:1000800005900D92A031B107D9F70E944B000C9456
:100090008C000C9400008FEF84B90E945D0080E01A
:1000A00091E00E9476002FEF81EE94E02150804095
:1000B0009040E1F700C00000F2CF1092C50087E643
:1000C0008093C400E0ECF0E080818D7F808388E144
:1000D0008093C10086E08093C2000895E0ECF0E0D8
:1000E000908195FFFDCF8093C60008950F931F93D5
:1000F000CF93FC018081882359F08F01C0E00E94DA
:100100006E00CF5FF801EC0FF11D80818111F7CFF8
:0C011000CF911F910F910895F894FFCF3C
:10011C0048656C6C6F20576F726C64210D0A00007F
:00000001FF
